{
  "_format": "hh-sol-artifact-1",
  "contractName": "DietChallenge",
  "sourceName": "contracts/DietChallenge.sol",
  "abi": [
    {
      "inputs": [
        {
          "internalType": "uint256",
          "name": "_duration",
          "type": "uint256"
        },
        {
          "internalType": "uint256",
          "name": "_wait",
          "type": "uint256"
        }
      ],
      "stateMutability": "nonpayable",
      "type": "constructor"
    },
    {
      "anonymous": false,
      "inputs": [
        {
          "indexed": false,
          "internalType": "uint256",
          "name": "valueLocked",
          "type": "uint256"
        },
        {
          "indexed": false,
          "internalType": "uint256",
          "name": "totalValueLocked",
          "type": "uint256"
        },
        {
          "indexed": false,
          "internalType": "uint256",
          "name": "totalUsers",
          "type": "uint256"
        }
      ],
      "name": "DepositCreated",
      "type": "event"
    },
    {
      "anonymous": false,
      "inputs": [
        {
          "indexed": false,
          "internalType": "uint256",
          "name": "valueWithdrawn",
          "type": "uint256"
        },
        {
          "indexed": false,
          "internalType": "uint256",
          "name": "remainingValue",
          "type": "uint256"
        }
      ],
      "name": "WithdrawCreated",
      "type": "event"
    },
    {
      "inputs": [],
      "name": "adminAddress",
      "outputs": [
        {
          "internalType": "address",
          "name": "",
          "type": "address"
        }
      ],
      "stateMutability": "view",
      "type": "function"
    },
    {
      "inputs": [
        {
          "internalType": "string",
          "name": "ipfsHash",
          "type": "string"
        },
        {
          "internalType": "uint256",
          "name": "weightGoal",
          "type": "uint256"
        }
      ],
      "name": "deposit",
      "outputs": [],
      "stateMutability": "payable",
      "type": "function"
    },
    {
      "inputs": [],
      "name": "dueDate",
      "outputs": [
        {
          "internalType": "uint256",
          "name": "",
          "type": "uint256"
        }
      ],
      "stateMutability": "view",
      "type": "function"
    },
    {
      "inputs": [],
      "name": "forceDueDate",
      "outputs": [],
      "stateMutability": "nonpayable",
      "type": "function"
    },
    {
      "inputs": [],
      "name": "freezeFunds",
      "outputs": [],
      "stateMutability": "nonpayable",
      "type": "function"
    },
    {
      "inputs": [],
      "name": "getAllUserInfo",
      "outputs": [
        {
          "components": [
            {
              "internalType": "address payable",
              "name": "owner",
              "type": "address"
            },
            {
              "components": [
                {
                  "internalType": "uint256",
                  "name": "weight",
                  "type": "uint256"
                },
                {
                  "internalType": "string",
                  "name": "ipfsHash",
                  "type": "string"
                }
              ],
              "internalType": "struct DietChallenge.Result",
              "name": "goal",
              "type": "tuple"
            },
            {
              "components": [
                {
                  "internalType": "uint256",
                  "name": "weight",
                  "type": "uint256"
                },
                {
                  "internalType": "string",
                  "name": "ipfsHash",
                  "type": "string"
                }
              ],
              "internalType": "struct DietChallenge.Result",
              "name": "actual",
              "type": "tuple"
            },
            {
              "internalType": "uint256",
              "name": "valueLocked",
              "type": "uint256"
            },
            {
              "internalType": "bool",
              "name": "reached",
              "type": "bool"
            }
          ],
          "internalType": "struct DietChallenge.UserAttributes[]",
          "name": "",
          "type": "tuple[]"
        }
      ],
      "stateMutability": "view",
      "type": "function"
    },
    {
      "inputs": [],
      "name": "getTotalValueLocked",
      "outputs": [
        {
          "internalType": "uint256",
          "name": "",
          "type": "uint256"
        }
      ],
      "stateMutability": "view",
      "type": "function"
    },
    {
      "inputs": [],
      "name": "isLocked",
      "outputs": [
        {
          "internalType": "bool",
          "name": "",
          "type": "bool"
        }
      ],
      "stateMutability": "view",
      "type": "function"
    },
    {
      "inputs": [],
      "name": "isRoundOver",
      "outputs": [
        {
          "internalType": "bool",
          "name": "",
          "type": "bool"
        }
      ],
      "stateMutability": "view",
      "type": "function"
    },
    {
      "inputs": [],
      "name": "name",
      "outputs": [
        {
          "internalType": "string",
          "name": "",
          "type": "string"
        }
      ],
      "stateMutability": "view",
      "type": "function"
    },
    {
      "inputs": [],
      "name": "releaseFunds",
      "outputs": [],
      "stateMutability": "nonpayable",
      "type": "function"
    },
    {
      "inputs": [],
      "name": "restart",
      "outputs": [],
      "stateMutability": "nonpayable",
      "type": "function"
    },
    {
      "inputs": [
        {
          "internalType": "string",
          "name": "ipfsHash",
          "type": "string"
        },
        {
          "internalType": "uint256",
          "name": "weightActual",
          "type": "uint256"
        }
      ],
      "name": "submitResult",
      "outputs": [],
      "stateMutability": "nonpayable",
      "type": "function"
    },
    {
      "inputs": [],
      "name": "symbol",
      "outputs": [
        {
          "internalType": "string",
          "name": "",
          "type": "string"
        }
      ],
      "stateMutability": "view",
      "type": "function"
    },
    {
      "inputs": [],
      "name": "totalResultsSubmitted",
      "outputs": [
        {
          "internalType": "uint256",
          "name": "",
          "type": "uint256"
        }
      ],
      "stateMutability": "view",
      "type": "function"
    },
    {
      "inputs": [],
      "name": "totalUsers",
      "outputs": [
        {
          "internalType": "uint256",
          "name": "",
          "type": "uint256"
        }
      ],
      "stateMutability": "view",
      "type": "function"
    },
    {
      "inputs": [],
      "name": "totalValueLocked",
      "outputs": [
        {
          "internalType": "uint256",
          "name": "",
          "type": "uint256"
        }
      ],
      "stateMutability": "view",
      "type": "function"
    },
    {
      "inputs": [],
      "name": "totalWinners",
      "outputs": [
        {
          "internalType": "uint256",
          "name": "",
          "type": "uint256"
        }
      ],
      "stateMutability": "view",
      "type": "function"
    },
    {
      "inputs": [
        {
          "internalType": "address",
          "name": "",
          "type": "address"
        }
      ],
      "name": "tvlByUser",
      "outputs": [
        {
          "internalType": "address payable",
          "name": "owner",
          "type": "address"
        },
        {
          "components": [
            {
              "internalType": "uint256",
              "name": "weight",
              "type": "uint256"
            },
            {
              "internalType": "string",
              "name": "ipfsHash",
              "type": "string"
            }
          ],
          "internalType": "struct DietChallenge.Result",
          "name": "goal",
          "type": "tuple"
        },
        {
          "components": [
            {
              "internalType": "uint256",
              "name": "weight",
              "type": "uint256"
            },
            {
              "internalType": "string",
              "name": "ipfsHash",
              "type": "string"
            }
          ],
          "internalType": "struct DietChallenge.Result",
          "name": "actual",
          "type": "tuple"
        },
        {
          "internalType": "uint256",
          "name": "valueLocked",
          "type": "uint256"
        },
        {
          "internalType": "bool",
          "name": "reached",
          "type": "bool"
        }
      ],
      "stateMutability": "view",
      "type": "function"
    },
    {
      "inputs": [
        {
          "internalType": "uint256",
          "name": "",
          "type": "uint256"
        }
      ],
      "name": "userAddresses",
      "outputs": [
        {
          "internalType": "address",
          "name": "",
          "type": "address"
        }
      ],
      "stateMutability": "view",
      "type": "function"
    },
    {
      "inputs": [],
      "name": "winningAmount",
      "outputs": [
        {
          "internalType": "uint256",
          "name": "",
          "type": "uint256"
        }
      ],
      "stateMutability": "view",
      "type": "function"
    },
    {
      "inputs": [],
      "name": "withdraw",
      "outputs": [],
      "stateMutability": "nonpayable",
      "type": "function"
    },
    {
      "inputs": [],
      "name": "withdrawAll",
      "outputs": [],
      "stateMutability": "nonpayable",
      "type": "function"
    }
  ],
  "bytecode": "0x60806040526040518060400160405280600d81526020017f446965744368616c6c656e676500000000000000000000000000000000000000815250600090805190602001906200005192919062000196565b506040518060400160405280600481526020017f4449455400000000000000000000000000000000000000000000000000000000815250600190805190602001906200009f92919062000196565b506000600260006101000a81548160ff0219169083151502179055506000600260016101000a81548160ff021916908315150217905550348015620000e357600080fd5b50604051620030a6380380620030a683398181016040528101906200010991906200025d565b33600a60006101000a81548173ffffffffffffffffffffffffffffffffffffffff021916908373ffffffffffffffffffffffffffffffffffffffff16021790555081600c8190555080600d819055506000600260006101000a81548160ff0219169083151502179055506000600260016101000a81548160ff021916908315150217905550505062000327565b828054620001a490620002a8565b90600052602060002090601f016020900481019282620001c8576000855562000214565b82601f10620001e357805160ff191683800117855562000214565b8280016001018555821562000214579182015b8281111562000213578251825591602001919060010190620001f6565b5b50905062000223919062000227565b5090565b5b808211156200024257600081600090555060010162000228565b5090565b60008151905062000257816200030d565b92915050565b600080604083850312156200027157600080fd5b6000620002818582860162000246565b9250506020620002948582860162000246565b9150509250929050565b6000819050919050565b60006002820490506001821680620002c157607f821691505b60208210811415620002d857620002d7620002de565b5b50919050565b7f4e487b7100000000000000000000000000000000000000000000000000000000600052602260045260246000fd5b62000318816200029e565b81146200032457600080fd5b50565b612d6f80620003376000396000f3fe6080604052600436106101405760003560e01c8063853828b6116100b6578063bcc941b61161006f578063bcc941b6146103a9578063bff1f9e1146103d4578063c9e975b2146103ff578063d3f42d2414610440578063ec18154e1461046b578063fc6f94681461049657610140565b8063853828b6146102ca5780638e27d719146102e157806395d89b41146102fd57806398f22c1214610328578063a4e2d63414610353578063b26025aa1461037e57610140565b80634b6f1e8b116101085780634b6f1e8b146101e0578063502c9bd51461020b57806369d89575146102485780637664e2261461025f578063786716fe1461028857806379978198146102b357610140565b806306fdde031461014557806318c9273a146101705780631ef3755d14610187578063305876a71461019e5780633ccfd60b146101c9575b600080fd5b34801561015157600080fd5b5061015a6104c1565b6040516101679190612708565b60405180910390f35b34801561017c57600080fd5b5061018561054f565b005b34801561019357600080fd5b5061019c6105f6565b005b3480156101aa57600080fd5b506101b361088e565b6040516101c091906126ed565b60405180910390f35b3480156101d557600080fd5b506101de6108a1565b005b3480156101ec57600080fd5b506101f5610c95565b604051610202919061292a565b60405180910390f35b34801561021757600080fd5b50610232600480360381019061022d9190611e9b565b610c9b565b60405161023f919061264f565b60405180910390f35b34801561025457600080fd5b5061025d610cda565b005b34801561026b57600080fd5b5061028660048036038101906102819190611e47565b610e72565b005b34801561029457600080fd5b5061029d6110a4565b6040516102aa919061292a565b60405180910390f35b3480156102bf57600080fd5b506102c86110aa565b005b3480156102d657600080fd5b506102df6111c9565b005b6102fb60048036038101906102f69190611e47565b6112b2565b005b34801561030957600080fd5b5061031261157e565b60405161031f9190612708565b60405180910390f35b34801561033457600080fd5b5061033d61160c565b60405161034a919061292a565b60405180910390f35b34801561035f57600080fd5b50610368611612565b60405161037591906126ed565b60405180910390f35b34801561038a57600080fd5b50610393611625565b6040516103a0919061292a565b60405180910390f35b3480156103b557600080fd5b506103be61162d565b6040516103cb919061292a565b60405180910390f35b3480156103e057600080fd5b506103e9611633565b6040516103f6919061292a565b60405180910390f35b34801561040b57600080fd5b5061042660048036038101906104219190611e1e565b611639565b60405161043795949392919061266a565b60405180910390f35b34801561044c57600080fd5b506104556117e8565b60405161046291906126cb565b60405180910390f35b34801561047757600080fd5b50610480611b65565b60405161048d919061292a565b60405180910390f35b3480156104a257600080fd5b506104ab611b6b565b6040516104b8919061264f565b60405180910390f35b600080546104ce90612bc3565b80601f01602080910402602001604051908101604052809291908181526020018280546104fa90612bc3565b80156105475780601f1061051c57610100808354040283529160200191610547565b820191906000526020600020905b81548152906001019060200180831161052a57829003601f168201915b505050505081565b600a60009054906101000a900473ffffffffffffffffffffffffffffffffffffffff1673ffffffffffffffffffffffffffffffffffffffff163373ffffffffffffffffffffffffffffffffffffffff16146105df576040517f08c379a00000000000000000000000000000000000000000000000000000000081526004016105d69061276a565b60405180910390fd5b62015180426105ee9190612af3565b600381905550565b600a60009054906101000a900473ffffffffffffffffffffffffffffffffffffffff1673ffffffffffffffffffffffffffffffffffffffff163373ffffffffffffffffffffffffffffffffffffffff1614610686576040517f08c379a000000000000000000000000000000000000000000000000000000000815260040161067d9061276a565b60405180910390fd5b60011515600260019054906101000a900460ff1615151480156106bc575060001515600260009054906101000a900460ff161515145b6106fb576040517f08c379a00000000000000000000000000000000000000000000000000000000081526004016106f29061274a565b60405180910390fd5b610703611b91565b61070b611bae565b6000600581905550600060068190555060006007819055506000600881905550600060038190555060005b60098054905081101561087d57600b600060098381548110610781577f4e487b7100000000000000000000000000000000000000000000000000000000600052603260045260246000fd5b9060005260206000200160009054906101000a900473ffffffffffffffffffffffffffffffffffffffff1673ffffffffffffffffffffffffffffffffffffffff1673ffffffffffffffffffffffffffffffffffffffff168152602001908152602001600020600080820160006101000a81549073ffffffffffffffffffffffffffffffffffffffff02191690556001820160008082016000905560018201600061082b9190611c1b565b50506003820160008082016000905560018201600061084a9190611c1b565b505060058201600090556006820160006101000a81549060ff02191690555050808061087590612bf5565b915050610736565b506009600061088c9190611c5b565b565b600260019054906101000a900460ff1681565b60011515600260019054906101000a900460ff1615151480156108d7575060001515600260009054906101000a900460ff161515145b610916576040517f08c379a000000000000000000000000000000000000000000000000000000000815260040161090d9061274a565b60405180910390fd5b426003541061095a576040517f08c379a0000000000000000000000000000000000000000000000000000000008152600401610951906128aa565b60405180910390fd5b600d546003544261096b9190612af3565b116109ab576040517f08c379a00000000000000000000000000000000000000000000000000000000081526004016109a2906127ea565b60405180910390fd5b60011515600b60003373ffffffffffffffffffffffffffffffffffffffff1673ffffffffffffffffffffffffffffffffffffffff16815260200190815260200160002060060160009054906101000a900460ff16151514610a41576040517f08c379a0000000000000000000000000000000000000000000000000000000008152600401610a389061280a565b60405180910390fd5b6000600b60003373ffffffffffffffffffffffffffffffffffffffff1673ffffffffffffffffffffffffffffffffffffffff1681526020019081526020016000206005015411610ac6576040517f08c379a0000000000000000000000000000000000000000000000000000000008152600401610abd9061284a565b60405180910390fd5b600060045411610b0b576040517f08c379a0000000000000000000000000000000000000000000000000000000008152600401610b029061282a565b60405180910390fd5b600060085411610b50576040517f08c379a0000000000000000000000000000000000000000000000000000000008152600401610b479061278a565b60405180910390fd5b60085460045410610ba9573373ffffffffffffffffffffffffffffffffffffffff166108fc6008549081150290604051600060405180830381858888f19350505050158015610ba3573d6000803e3d6000fd5b50610bf3565b3373ffffffffffffffffffffffffffffffffffffffff166108fc6004549081150290604051600060405180830381858888f19350505050158015610bf1573d6000803e3d6000fd5b505b60085460046000828254610c079190612af3565b925050819055506000600b60003373ffffffffffffffffffffffffffffffffffffffff1673ffffffffffffffffffffffffffffffffffffffff168152602001908152602001600020600501819055507fe7b7ea132132f9029e4c23ed77f73b9d73516f3938f82dc4ac52522464063fb8600854600454604051610c8b929190612945565b60405180910390a1565b60065481565b60098181548110610cab57600080fd5b906000526020600020016000915054906101000a900473ffffffffffffffffffffffffffffffffffffffff1681565b600a60009054906101000a900473ffffffffffffffffffffffffffffffffffffffff1673ffffffffffffffffffffffffffffffffffffffff163373ffffffffffffffffffffffffffffffffffffffff1614610d6a576040517f08c379a0000000000000000000000000000000000000000000000000000000008152600401610d619061276a565b60405180910390fd5b60011515600260009054906101000a900460ff161515148015610da0575060001515600260019054906101000a900460ff161515145b610ddf576040517f08c379a0000000000000000000000000000000000000000000000000000000008152600401610dd69061290a565b60405180910390fd5b42600d54600354610df09190612a6c565b10610e30576040517f08c379a0000000000000000000000000000000000000000000000000000000008152600401610e27906128ea565b60405180910390fd5b60006007541115610e5657600754600454610e4b9190612ac2565b600881905550610e60565b6004546008819055505b610e68611b91565b610e70611bcb565b565b4260035410610eb6576040517f08c379a0000000000000000000000000000000000000000000000000000000008152600401610ead906128ca565b60405180910390fd5b60011515600260009054906101000a900460ff161515148015610eec575060001515600260019054906101000a900460ff161515145b610f2b576040517f08c379a0000000000000000000000000000000000000000000000000000000008152600401610f229061288a565b60405180910390fd5b6000600b60003373ffffffffffffffffffffffffffffffffffffffff1673ffffffffffffffffffffffffffffffffffffffff16815260200190815260200160002090503373ffffffffffffffffffffffffffffffffffffffff168160000160009054906101000a900473ffffffffffffffffffffffffffffffffffffffff1673ffffffffffffffffffffffffffffffffffffffff1614611000576040517f08c379a0000000000000000000000000000000000000000000000000000000008152600401610ff7906127ca565b60405180910390fd5b6040518060400160405280838152602001848152508160030160008201518160000155602082015181600101908051906020019061103f929190611c7c565b50905050818160010160000154106110875760018160060160006101000a81548160ff0219169083151502179055506007600081548092919061108190612bf5565b91905055505b6006600081548092919061109a90612bf5565b9190505550505050565b60035481565b600a60009054906101000a900473ffffffffffffffffffffffffffffffffffffffff1673ffffffffffffffffffffffffffffffffffffffff163373ffffffffffffffffffffffffffffffffffffffff161461113a576040517f08c379a00000000000000000000000000000000000000000000000000000000081526004016111319061276a565b60405180910390fd5b60001515600260019054906101000a900460ff161515148015611170575060001515600260009054906101000a900460ff161515145b6111af576040517f08c379a00000000000000000000000000000000000000000000000000000000081526004016111a69061286a565b60405180910390fd5b6111b7611be8565b6111bf611bfe565b6111c7611bae565b565b600a60009054906101000a900473ffffffffffffffffffffffffffffffffffffffff1673ffffffffffffffffffffffffffffffffffffffff163373ffffffffffffffffffffffffffffffffffffffff1614611259576040517f08c379a00000000000000000000000000000000000000000000000000000000081526004016112509061276a565b60405180910390fd5b3373ffffffffffffffffffffffffffffffffffffffff166108fc479081150290604051600060405180830381858888f1935050505015801561129f573d6000803e3d6000fd5b5060006004819055506000600881905550565b60001515600260019054906101000a900460ff1615151480156112e8575060001515600260009054906101000a900460ff161515145b611327576040517f08c379a000000000000000000000000000000000000000000000000000000000815260040161131e9061286a565b60405180910390fd5b60003490506000811161136f576040517f08c379a00000000000000000000000000000000000000000000000000000000081526004016113669061272a565b60405180910390fd5b6000600b60003373ffffffffffffffffffffffffffffffffffffffff1673ffffffffffffffffffffffffffffffffffffffff168152602001908152602001600020905060008160050154146113f9576040517f08c379a00000000000000000000000000000000000000000000000000000000081526004016113f0906127aa565b60405180910390fd5b338160000160006101000a81548173ffffffffffffffffffffffffffffffffffffffff021916908373ffffffffffffffffffffffffffffffffffffffff1602179055506040518060400160405280848152602001858152508160010160008201518160000155602082015181600101908051906020019061147b929190611c7c565b5090505081816005018190555060008160060160006101000a81548160ff02191690831515021790555081600460008282546114b79190612a6c565b92505081905550600560008154809291906114d190612bf5565b91905055506009339080600181540180825580915050600190039060005260206000200160009091909190916101000a81548173ffffffffffffffffffffffffffffffffffffffff021916908373ffffffffffffffffffffffffffffffffffffffff1602179055507f414ddba7f3fb1bebab819467f52b3eefe63284b1ded6fe1846020501da5c0f72826004546005546040516115709392919061296e565b60405180910390a150505050565b6001805461158b90612bc3565b80601f01602080910402602001604051908101604052809291908181526020018280546115b790612bc3565b80156116045780601f106115d957610100808354040283529160200191611604565b820191906000526020600020905b8154815290600101906020018083116115e757829003601f168201915b505050505081565b60085481565b600260009054906101000a900460ff1681565b600047905090565b60075481565b60055481565b600b6020528060005260406000206000915090508060000160009054906101000a900473ffffffffffffffffffffffffffffffffffffffff1690806001016040518060400160405290816000820154815260200160018201805461169c90612bc3565b80601f01602080910402602001604051908101604052809291908181526020018280546116c890612bc3565b80156117155780601f106116ea57610100808354040283529160200191611715565b820191906000526020600020905b8154815290600101906020018083116116f857829003601f168201915b50505050508152505090806003016040518060400160405290816000820154815260200160018201805461174890612bc3565b80601f016020809104026020016040519081016040528092919081815260200182805461177490612bc3565b80156117c15780601f10611796576101008083540402835291602001916117c1565b820191906000526020600020905b8154815290600101906020018083116117a457829003601f168201915b505050505081525050908060050154908060060160009054906101000a900460ff16905085565b6060600060098054905067ffffffffffffffff811115611831577f4e487b7100000000000000000000000000000000000000000000000000000000600052604160045260246000fd5b60405190808252806020026020018201604052801561186a57816020015b611857611d02565b81526020019060019003908161184f5790505b50905060005b600980549050811015611b5d57600b6000600983815481106118bb577f4e487b7100000000000000000000000000000000000000000000000000000000600052603260045260246000fd5b9060005260206000200160009054906101000a900473ffffffffffffffffffffffffffffffffffffffff1673ffffffffffffffffffffffffffffffffffffffff1673ffffffffffffffffffffffffffffffffffffffff1681526020019081526020016000206040518060a00160405290816000820160009054906101000a900473ffffffffffffffffffffffffffffffffffffffff1673ffffffffffffffffffffffffffffffffffffffff1673ffffffffffffffffffffffffffffffffffffffff16815260200160018201604051806040016040529081600082015481526020016001820180546119ab90612bc3565b80601f01602080910402602001604051908101604052809291908181526020018280546119d790612bc3565b8015611a245780601f106119f957610100808354040283529160200191611a24565b820191906000526020600020905b815481529060010190602001808311611a0757829003601f168201915b50505050508152505081526020016003820160405180604001604052908160008201548152602001600182018054611a5b90612bc3565b80601f0160208091040260200160405190810160405280929190818152602001828054611a8790612bc3565b8015611ad45780601f10611aa957610100808354040283529160200191611ad4565b820191906000526020600020905b815481529060010190602001808311611ab757829003601f168201915b5050505050815250508152602001600582015481526020016006820160009054906101000a900460ff161515151581525050828281518110611b3f577f4e487b7100000000000000000000000000000000000000000000000000000000600052603260045260246000fd5b60200260200101819052508080611b5590612bf5565b915050611870565b508091505090565b60045481565b600a60009054906101000a900473ffffffffffffffffffffffffffffffffffffffff1681565b6000600260006101000a81548160ff021916908315150217905550565b6000600260016101000a81548160ff021916908315150217905550565b6001600260016101000a81548160ff021916908315150217905550565b600c5442611bf69190612a6c565b600381905550565b6001600260006101000a81548160ff021916908315150217905550565b508054611c2790612bc3565b6000825580601f10611c395750611c58565b601f016020900490600052602060002090810190611c579190611d55565b5b50565b5080546000825590600052602060002090810190611c799190611d55565b50565b828054611c8890612bc3565b90600052602060002090601f016020900481019282611caa5760008555611cf1565b82601f10611cc357805160ff1916838001178555611cf1565b82800160010185558215611cf1579182015b82811115611cf0578251825591602001919060010190611cd5565b5b509050611cfe9190611d55565b5090565b6040518060a00160405280600073ffffffffffffffffffffffffffffffffffffffff168152602001611d32611d72565b8152602001611d3f611d72565b8152602001600081526020016000151581525090565b5b80821115611d6e576000816000905550600101611d56565b5090565b604051806040016040528060008152602001606081525090565b6000611d9f611d9a846129d6565b6129a5565b905082815260208101848484011115611db757600080fd5b611dc2848285612b81565b509392505050565b600081359050611dd981612d0b565b92915050565b600082601f830112611df057600080fd5b8135611e00848260208601611d8c565b91505092915050565b600081359050611e1881612d22565b92915050565b600060208284031215611e3057600080fd5b6000611e3e84828501611dca565b91505092915050565b60008060408385031215611e5a57600080fd5b600083013567ffffffffffffffff811115611e7457600080fd5b611e8085828601611ddf565b9250506020611e9185828601611e09565b9150509250929050565b600060208284031215611ead57600080fd5b6000611ebb84828501611e09565b91505092915050565b6000611ed083836125b4565b905092915050565b611ee181612b39565b82525050565b611ef081612b39565b82525050565b611eff81612b27565b82525050565b6000611f1082612a16565b611f1a8185612a39565b935083602082028501611f2c85612a06565b8060005b85811015611f685784840389528151611f498582611ec4565b9450611f5483612a2c565b925060208a01995050600181019050611f30565b50829750879550505050505092915050565b611f8381612b4b565b82525050565b611f9281612b4b565b82525050565b6000611fa382612a21565b611fad8185612a4a565b9350611fbd818560208601612b90565b611fc681612cfa565b840191505092915050565b6000611fdc82612a21565b611fe68185612a5b565b9350611ff6818560208601612b90565b611fff81612cfa565b840191505092915050565b6000612017601983612a5b565b91507f596f75206d757374207375626d697420616e20616d6f756e74000000000000006000830152602082019050919050565b6000612057601183612a5b565b91507f5468652067616d65206e6f74206f7665720000000000000000000000000000006000830152602082019050919050565b6000612097601983612a5b565b91507f546869732069732061646d696e206f6e6c7920616374696f6e000000000000006000830152602082019050919050565b60006120d7602183612a5b565b91507f5761697420756e74696c207468652066756e6473206172652072656c6561736560008301527f64000000000000000000000000000000000000000000000000000000000000006020830152604082019050919050565b600061213d601e83612a5b565b91507f596f7520616c7265616479206d61646520796f7572206465706f7369747300006000830152602082019050919050565b600061217d602383612a5b565b91507f596f752063616e206f6e6c79207375626d697420796f7572206f776e2072657360008301527f756c7400000000000000000000000000000000000000000000000000000000006020830152604082019050919050565b60006121e3603783612a5b565b91507f596f75206861766520746f207761697420756e74696c2074686520656e64206f60008301527f6620746865207375626d697373696f6e20706572696f640000000000000000006020830152604082019050919050565b6000612249602183612a5b565b91507f596f7520617265206e6f7420656c696769626c6520666f72207769746864726160008301527f77000000000000000000000000000000000000000000000000000000000000006020830152604082019050919050565b60006122af601f83612a5b565b91507f5468657265206973206e6f2066756e6473206c65667420746f20636c61696d006000830152602082019050919050565b60006122ef602583612a5b565b91507f596f75206861766520616c7265616479206d61646520796f757220776974686460008301527f726177616c0000000000000000000000000000000000000000000000000000006020830152604082019050919050565b6000612355601c83612a5b565b91507f5468652067616d652068617320616c72656164792073746172746564000000006000830152602082019050919050565b6000612395602683612a5b565b91507f596f75206d757374207761697420666f72207468652061646d696e20746f206360008301527f6f6e6669726d00000000000000000000000000000000000000000000000000006020830152604082019050919050565b60006123fb601883612a5b565b91507f4974206d757374207061737320746865206475656461746500000000000000006000830152602082019050919050565b600061243b603383612a5b565b91507f596f75206d757374207761697420756e74696c2074686520647565206461746560008301527f20746f207375626d6974206120726573756c74000000000000000000000000006020830152604082019050919050565b60006124a1603483612a5b565b91507f596f75206d757374207761697420756e74696c2074686520656e64206f66207460008301527f6865207375626d697373696f6e20706572696f640000000000000000000000006020830152604082019050919050565b6000612507601d83612a5b565b91507f5468652067616d6520686173206e6f74206576656e20737461727465640000006000830152602082019050919050565b60006040830160008301516125526000860182612631565b506020830151848203602086015261256a8282611f98565b9150508091505092915050565b600060408301600083015161258f6000860182612631565b50602083015184820360208601526125a78282611f98565b9150508091505092915050565b600060a0830160008301516125cc6000860182611ed8565b50602083015184820360208601526125e4828261253a565b915050604083015184820360408601526125fe828261253a565b91505060608301516126136060860182612631565b5060808301516126266080860182611f7a565b508091505092915050565b61263a81612b77565b82525050565b61264981612b77565b82525050565b60006020820190506126646000830184611ef6565b92915050565b600060a08201905061267f6000830188611ee7565b81810360208301526126918187612577565b905081810360408301526126a58186612577565b90506126b46060830185612640565b6126c16080830184611f89565b9695505050505050565b600060208201905081810360008301526126e58184611f05565b905092915050565b60006020820190506127026000830184611f89565b92915050565b600060208201905081810360008301526127228184611fd1565b905092915050565b600060208201905081810360008301526127438161200a565b9050919050565b600060208201905081810360008301526127638161204a565b9050919050565b600060208201905081810360008301526127838161208a565b9050919050565b600060208201905081810360008301526127a3816120ca565b9050919050565b600060208201905081810360008301526127c381612130565b9050919050565b600060208201905081810360008301526127e381612170565b9050919050565b60006020820190508181036000830152612803816121d6565b9050919050565b600060208201905081810360008301526128238161223c565b9050919050565b60006020820190508181036000830152612843816122a2565b9050919050565b60006020820190508181036000830152612863816122e2565b9050919050565b6000602082019050818103600083015261288381612348565b9050919050565b600060208201905081810360008301526128a381612388565b9050919050565b600060208201905081810360008301526128c3816123ee565b9050919050565b600060208201905081810360008301526128e38161242e565b9050919050565b6000602082019050818103600083015261290381612494565b9050919050565b60006020820190508181036000830152612923816124fa565b9050919050565b600060208201905061293f6000830184612640565b92915050565b600060408201905061295a6000830185612640565b6129676020830184612640565b9392505050565b60006060820190506129836000830186612640565b6129906020830185612640565b61299d6040830184612640565b949350505050565b6000604051905081810181811067ffffffffffffffff821117156129cc576129cb612ccb565b5b8060405250919050565b600067ffffffffffffffff8211156129f1576129f0612ccb565b5b601f19601f8301169050602081019050919050565b6000819050602082019050919050565b600081519050919050565b600081519050919050565b6000602082019050919050565b600082825260208201905092915050565b600082825260208201905092915050565b600082825260208201905092915050565b6000612a7782612b77565b9150612a8283612b77565b9250827fffffffffffffffffffffffffffffffffffffffffffffffffffffffffffffffff03821115612ab757612ab6612c3e565b5b828201905092915050565b6000612acd82612b77565b9150612ad883612b77565b925082612ae857612ae7612c6d565b5b828204905092915050565b6000612afe82612b77565b9150612b0983612b77565b925082821015612b1c57612b1b612c3e565b5b828203905092915050565b6000612b3282612b57565b9050919050565b6000612b4482612b57565b9050919050565b60008115159050919050565b600073ffffffffffffffffffffffffffffffffffffffff82169050919050565b6000819050919050565b82818337600083830152505050565b60005b83811015612bae578082015181840152602081019050612b93565b83811115612bbd576000848401525b50505050565b60006002820490506001821680612bdb57607f821691505b60208210811415612bef57612bee612c9c565b5b50919050565b6000612c0082612b77565b91507fffffffffffffffffffffffffffffffffffffffffffffffffffffffffffffffff821415612c3357612c32612c3e565b5b600182019050919050565b7f4e487b7100000000000000000000000000000000000000000000000000000000600052601160045260246000fd5b7f4e487b7100000000000000000000000000000000000000000000000000000000600052601260045260246000fd5b7f4e487b7100000000000000000000000000000000000000000000000000000000600052602260045260246000fd5b7f4e487b7100000000000000000000000000000000000000000000000000000000600052604160045260246000fd5b6000601f19601f8301169050919050565b612d1481612b27565b8114612d1f57600080fd5b50565b612d2b81612b77565b8114612d3657600080fd5b5056fea2646970667358221220be5bafae0bcf756f714b22737bfcf358ada74947beee921250e70b2cce7cdea664736f6c63430008000033",
  "linkReferences": {},
  "deployedLinkReferences": {}
}